S01700004763634170706C69636174696F6E372E7372656355
S11300000C9434000C9446000C9446000C94460066
S11300100C9446000C9446000C9446000C94460044
S11300200C9446000C9446000C9446000C94480032
S11300300C9446000C9446000C9446000C94460024
S11300400C9446000C9446000C9446000C94460014
S11300500C9446000C9446000C9446000C94460004
S11300600C9446000C94460011241FBECFEFD8E038
S1130070DEBFCDBF21E0A0E0B1E001C01D92A13000
S1130080B207E1F70E9476000C9494000C940000EF
S11300901F920F920FB60F9211248F9381E08093D9
S11300A000018F910F900FBE0F901F901895813013
S11300B049F480EF84B98FE085B983B183B1809529
S11300C08F7008958FE084B980EF85B983B183B1CF
S11300D08095807F0895CF9380E00E945700C82FB9
S11300E081E00E9457008C2BCF910895E1E8F0E065
S11300F0808188608083AEE6B0E08C9182608C93CE
S113010083E0809389009FEF9093880080818260D0
S113011080839AB91BB87894109200010E946B00F6
S10F01208823D1F38BB9F8CFF894FFCFFB
S9030000FC
